:020000020000FC
:100000000C9446000C9402000C9404000C9406001E
:100010000C9408000C940A000C940C000C940E0034
:100020000C9410000C9412000C9414000C94160004
:100030000C9418000C941A000C941C000C94A4004E
:100040000C9420000C9422000C9424000C942600A4
:100050000C9428000C942A000C942C000C942E0074
:100060000C9430000C9432000C9434000C94360044
:100070000C9438000C943A000C943C000C943E0014
:100080000C9440000C9442000C9444000FE70DBF08
:1000900001E00EBFF0D245D0D1D411D03CD49ED0D7
:1000A000AAD4BCD4C0D28DD141D202D05524EECF37
:1000B00001D509F453941127052DE6D0F9CF002777
:1000C0001127A0E8B1E00D9313951A30E0F30895DD
:1000D000053040F4000FC0E8D1E0C00F08F4D3951C
:1000E000A993B9930895053050F4000FC0E8D1E00A
:1000F000C00F08F4D39509800881002A01C00024AC
:100100000895A0E8B1E025E03D914D91532F542B87
:1001100029F03150404012973D934D932A95A1F715
:10012000189502D00CD00895002702BF03E00860A4
:1001300003BF0DE701BF07B702E007BF089500E462
:100140000FBD0BE00EBD08950F931F932F933F93A8
:100150004F935F936F937F938F939F93AF93BF93CF
:10016000CF93DF93EF93FF930F920FB60F9253D07D
:10017000B5D40F900FBE0F90FF91EF91DF91CF910B
:10018000BF91AF919F918F917F916F915F914F91AF
:100190003F912F911F910F911895FF007469726E16
:1001A000FE00457545720000477241750100496EB9
:1001B0007569020045444745030072416E640400BE
:1001C0002047743D050042414C4C1F004C4F5345A5
:1001D0000F00203D2920000020457272112410924A
:1001E000980110929E0100E00093990101E00093B4
:1001F0009F0100E00093A00101D008950EE00F924E
:10020000CAE8D1E0C00F0024D01D0F9010E01A936F
:100210000A95E9F7089500E00BBB02BB00919E012F
:1002200010919F01011720F500F0109198010F9295
:10023000CAE8D1E0C10F0024D01D0F90288125BB52
:100240000F92EAEDF9E0E10F0024F01D0F902491E8
:100250002BBB0F92E8EEF9E0E10F0024F01D0F90A8
:10026000249122BB13951E3009F411271093980195
:10027000039510919F012091A001120F011709F41D
:10028000002700939E0108953AE0202F2F700FD091
:100290003395202F22952F700AD03395212F2F7060
:1002A00006D03395212F22952F7001D008950F92FB
:1002B000EAECF9E0E20F0024F01D0F9044910F9258
:1002C000CAE8D1E0C30F0024D01D0F9048830895E1
:1002D00000240F92EAE9F1E0E00D0024F01D0F90F8
:1002E0001AE02491201719F036961A95D1F7329614
:1002F000CAE9D1E014E00F92CAE9D1E0C10F0024AD
:10030000D01D0F9005910A931A95E1F7AAE9B1E083
:100310000AE00F92CAE8D1E0C00F0024D01D0F9070
:1003200014E00D910F92EAE4F9E0E00F0024F01DD3
:100330000F90049109931A95A1F708950A9509342D
:10034000E8F40030D8F0202F277030E8203019F082
:100350002A953695FBCF0695069506950F92CAE825
:10036000D1E0C00F0024D01D0F904881103019F04B
:10037000432B488303C0309543234883089560E1AD
:1003800033242224001F111F221C331C241635067F
:1003900010F0241A350A6A95A9F7001F111F00955D
:1003A0001095089560E12224001F111F221C2416BD
:1003B00008F0241A6A95C1F7001F111F00951095C7
:1003C000089500E00093A60103E20093A1010EEF5F
:1003D0000093AE0100E00093A4010093A2010093FA
:1003E000A30101E000939F0100E00093A0010895A4
:1003F00057D379F101E077DE09F4AAD000E073DE8B
:1004000009F499D002E06FDE09F4D6D003E06BDE88
:1004100009F43DD222D3089501E00093A601009390
:10042000AF0101E814E00FB6F8940093B201109305
:10043000B3010FBE03E20093A10100240092A401C6
:100440001091AC010091AE012EEF02131093A401A4
:10045000089500E00093A6010093AF010DE714E0BA
:100460000FB6F8940093B2011093B3010FBE0FE1E1
:100470002FDF0FE700939F010093A0010091B401CB
:100480000130B9F3BBDE0FEF00939F01002400920F
:10049000A00100E00093A601089500E00093A601EA
:1004A0000093AF0107E714E00FB6F8940093B20190
:1004B0001093B3010FBE0FE00BDF0091B4010130C8
:1004C000E1F39CDE0895009123001091AA01010F31
:1004D0000895009123001091AA01011B08958EDE5A
:1004E0000CD006D00091A501013009F00DD008957F
:1004F0000091A4011127C8DE0895E5DF11E01EDF99
:10050000E8DF11E01BDF08950091A10120910500B3
:100510002A95322F300F363408F036E4021B0A9544
:1005200011E003950BDF0313FCCF089567D06BD068
:100530006FD073D008950091A4011091AE011F3FB8
:1005400011F0039501C00A950093A40157D00895B6
:1005500072D012951F700F92E4E2F6E0E10F0024D2
:10056000F01D0F900491109100000102102D0091D8
:10057000A301010F1091A201010F11274AE012DF20
:100580002092A2011091A101100F1093A1019BDFF5
:100590001091A101101750F49CDF1091A1011017C8
:1005A00028F00091A401003018F003C052DF01C010
:1005B00074DF29D094DF0895B4D10091B50107709C
:1005C0001091A901011700F001E00093A50103C0FB
:1005D00000E00093A501A5D10091B501112740913C
:1005E0000300E0DE0091A3011091B601112309F090
:1005F0002194020D0093A3010BD00895A8EEB3E05F
:1006000000E066DD0895A4E6B0E001E061DD089554
:10061000A8EEB3E002E05CDD0895A4E6B0E003E0FC
:1006200057DD0895000010E00AE11ED00CE11CD057
:100630000DE11AD008950BE310D0102F0CE30DD06C
:1006400008950DE30AD0102F0EE307D008950FE3AD
:1006500004D0102F00E401D008950068C098E9D1BB
:100660000FEFE7D1C09A08950F77C098E2D1012F1C
:10067000E0D1C09A0895789404D008D00BD00FD060
:1006800008950FEF0ABB01BB04BB089507B30062D6
:1006900007BB089507B30760077F07BB089500E015
:1006A00002B90895FDD109F4B7DEF0D109F427D0DD
:1006B000E3D109F430D0FED109F497D005D209F482
:1006C00041D003E010DD09F4E2D0089500E000938A
:1006D000A70101E00093000000E00093A90103E2FC
:1006E0000093AA0100E00093AB010AE00093AC0183
:1006F00001E00093AD010FEF0093AE01089500916A
:10070000AE010F3F19F00FEFE3DD02C00EEFE0DDA9
:100710000093AE010895EBE9F3E016E00091A70124
:100720002591021719F031961A95D1F7049100938B
:10073000A701CEDD089500010102020505030304AF
:1007400004000000E1EBF3E016E00091A701259121
:10075000021719F033961A95D1F725913591F901C1
:10076000099400BF030001C8030002D1030005EC97
:10077000030003DA030004E30300006603000091B2
:10078000000011E001130A95009300007DDD08953B
:100790000091A90110E001130A950093A90174DDED
:1007A0000895009102001AE001130A9500930200D7
:1007B000A4DE08950091030010E001130A95009350
:1007C000030062DD08950091AC0111E001130A9568
:1007D0000093AC0159DD08950091AD0111E00113C2
:1007E0000A950093050090DE0895E4E0F4E016E039
:1007F0000091A7012591021719F033961A95D1F7A8
:1008000025913591F901099400120400011B04009F
:1008100002240400053F0400032D040004360400F4
:10082000006603000091000014E00113039500939B
:1008300000002ADD08950091A90117E00113039536
:100840000093A90121DD08950091020013E2011334
:1008500003950093020051DE08950091030014E017
:1008600001130395009303000FDD08950091AC017F
:100870001FEF011303950093AC0106DD089500916D
:10088000050013E00113039500930500089501E0AE
:100890000093B4010091B0010A9519F00093B001E2
:1008A00015C00091B10103950093B10111D000234F
:1008B00061F40091AF01013021F400E00093B40134
:1008C00005C000E00093B10103D099D0A6DE0895E1
:1008D0000091B101000F2227E091B201F091B30124
:1008E000E00FF21F059124912093B0010895410A71
:1008F000520A520A410A620A0000520A410A3D0A9B
:1009000000004105450549054D0552054D054905C0
:100910004505410500000FEF0093B50101E000938C
:10092000B6010091B5011091B601202F22952170DA
:10093000312F317023272170000F022B111F1170EE
:100940000093B5011093B601089500000000000067
:100950000000000000000000000000000000000097
:100960000000000000000000000000004200000045
:100970000002790F0000008000007F06BB8FC6CD0B
:10098000FD07FFC7000000880000BFF7FF797FF96F
:10099000F1FDF6063E007800007FF30000CD007EFA
:1009A000000000C60079000F00084000FCB8BE003F
:1009B00000CFF40400007000B4BC0000B000F83CAC
:1009C000000000CE0000060001007F06BB8FC6CDF0
:1009D000FD07FFC7F7FC79BEF9F1010204081020FA
:1009E00040000000000000000000000000000002C5
:1009F0000104081020401127002701D0089510306D
:100A000021F4003011F4BD9808C0A80114EF04E2ED
:100A1000B6DCBD981BBD0ABDBD9A08950FE7006402
:100A20000F7D0061086004600D7F01600DB977984B
:100A300008950FB9779BFECF0FB108950EE10FB661
:100A4000F8940093B8010093BA010093BC0100E050
:100A50000093BD010FBE01D0089500E00FB6F894D9
:100A60000093B7010093B9010093BB010093BE014D
:100A70000093BF010FBE089510E00FB6F8940091E7
:100A8000BB011093BB010FBE0130089510E00FB6FB
:100A9000F8940091B9011093B9010FBE0130089587
:100AA00010E00FB6F8940091B7011093B7010FBE94
:100AB0000130089510E00FB6F8940091BF01109333
:100AC000BF010FBE0130089510E00FB6F8940091F9
:100AD000BE011093BE010FBE013008952091B801F0
:100AE00030E844D02093B8012091B701232B209304
:100AF000B7012091BA0130E439D02093BA01209196
:100B0000B901232B2093B9012091BC0130E22ED0F2
:100B10002093BC012091BB01232B2093BB0141B149
:100B20004871440F5091BD01652F6073641709F43B
:100B30001CC0652F607C440F440F6417B1F05695BC
:100B40005695540F5093BD01523D39F431E0309326
:100B5000BE0150E05093BD0108C0513E31F431E078
:100B60003093BF0150E05093BD01089501B1102FA3
:100B7000132319F02EE130E005C030E02A9511F47E
:060B80002FEF31E00895A3
:00000001FF
