:020000020000FC
:100000000C9446000C9402000C9404000C9406001E
:100010000C9408000C940A000C940C000C940E0034
:100020000C9410000C9412000C9414000C94160004
:100030000C9418000C941A000C941C000C94A5004D
:100040000C9420000C9422000C9424000C942600A4
:100050000C9428000C942A000C942C000C942E0074
:100060000C9430000C9432000C9434000C94360044
:100070000C9438000C943A000C943C000C943E0014
:100080000C9440000C9442000C9444000FE70DBF08
:1000900001E00EBF25D346D036D512D0A1D4A0D0D2
:1000A0000FD521D5F5D2B3D176D245D301D0EECF3D
:1000B0000091A601013011F02AD301C0BFD1F8CFC1
:1000C00000271127A0E8B1E00D9313951A30E0F353
:1000D0000895053040F4000FC0E8D1E0C00F08F4E7
:1000E000D395A993B9930895053050F4000FC0E853
:1000F000D1E0C00F08F4D39509800881002A01C01F
:1001000000240895A0E8B1E025E03D914D91532FE2
:10011000542B29F03150404012973D934D932A952E
:10012000A1F7089502D00CD00895002702BF03E084
:10013000086003BF0DE701BF07B702E007BF0895DE
:1001400000E40FBD0BE00EBD08950F931F932F9396
:100150003F934F935F936F937F938F939F93AF934F
:10016000BF93CF93DF93EF93FF930F920FB60F924E
:1001700054D019D5C7DF0F900FBE0F90FF91EF91AC
:10018000DF91CF91BF91AF919F918F917F916F91AF
:100190005F914F913F912F911F910F911895FF0003
:1001A0007469726EFE0020696E46000067724175C8
:1001B0000100496E75530200456467450300726E85
:1001C000677504007420743D050062414C4C1F00AB
:1001D0004C4F53450F00203D2920000020457272EE
:1001E00000240092980110929E0100E00093990172
:1001F00001E000939F0100E00093A00101D0089569
:100200000EE00F92CAE8D1E0C00F0024D01D0F907D
:1002100010E01A930A95E9F7089500E00BBB02BBC2
:1002200000919E0110919F01011720F500F010919F
:1002300098010F92CAE8D1E0C10F0024D01D0F90A1
:10024000288125BB0F92E4EAFAE0E10F0024F01DBB
:100250000F9024912BBB0F92E2EBFAE0E10F002408
:10026000F01D0F90249122BB13951E3009F4112725
:1002700010939801039510919F012091A001120FF6
:10028000011709F4002700939E0108953AE0202FFA
:100290002F700FD03395202F22952F700AD03395D1
:1002A000212F2F7006D03395212F22952F7001D04A
:1002B00008950F92E4E9FAE0E20F0024F01D0F9098
:1002C00044910F92CAE8D1E0C30F0024D01D0F90D3
:1002D0004883089500240F92EEE9F1E0E00D002438
:1002E000F01D0F901AE02491201719F036961A95F8
:1002F000D1F73296CAE9D1E014E00F92CAE9D1E011
:10030000C10F0024D01D0F9005910A931A95E1F7B3
:10031000AAE9B1E00AE00F92CAE8D1E0C00F0024D8
:10032000D01D0F9014E00D910F92E4E1FAE0E00F80
:100330000024F01D0F90049109931A95A1F70895D8
:100340000F931F932F933F934F93CF93DF930A9570
:100350000934E8F40030D8F0202F277030E820303E
:1003600019F02A953695FBCF0695069506950F92BE
:10037000CAE8D1E0C00F0024D01D0F904881103092
:1003800019F0432B488303C0309543234883DF9102
:10039000CF914F913F912F911F910F91089560E15F
:1003A00033242224001F111F221C331C241635065F
:1003B00010F0241A350A6A95A9F7001F111F00953D
:1003C0001095089560E12224001F111F221C24169D
:1003D00008F0241A6A95C1F7001F111F00951095A7
:1003E0000895E02EE12617FD119507FD0195FF18F0
:1003F00029E0001F2A9519F4E7FC01950895FF1CD8
:10040000F11A18F4F10E8894F4CF0894F2CF00E0BA
:100410000093A60103E20093A1010EEF0093AE0149
:1004200000270093A4010093A2010093A30101E01F
:1004300000939F0100E00093A001089596D3C1F1BD
:1004400001E052DE09F4B9D000E04EDE09F4A8D094
:1004500002E04ADE01F403E047DE09F477D262D31A
:100460000895CEDE01E00093A60100E00093A5010F
:1004700003E20093A10100240092A4010092A201D2
:100480000092A3010092A4011091AC010091AE0171
:100490002EEF02131093A4010093AF010CEC19E0AE
:1004A0000FB6F8940093B2011093B3010FBE0895F4
:1004B00000E00093A6010093AF0104EC19E00FB631
:1004C000F8940093B2011093B3010FBE0FE102DF65
:1004D0000FE700939F010093A00108C003E004DE32
:1004E000E9F734D20091B4010130C1F389DE0FEF96
:1004F00000939F0100270093A00189DF089500E089
:100500000093A6010093AF0108EB19E00FB6F89431
:100510000093B2011093B3010FBE0FE0DBDE08C001
:1005200003E0E2DDE9F712D20091B4010130C1F33A
:1005300067DE6DDF089504E21091AA01010F0895AE
:1005400003E21091AA01011B08955ADE08D002D0DF
:100550000DD008950091A401112798DE0895EBDFD6
:1005600011E0EEDEEDDF11E0EBDE0895F090A10189
:10057000D090AD01DA94ED2CEF0C0E2D063410F076
:1005800006E4E02EFD18FA94F3940F2D11E0D8DE66
:10059000FE14D1F7089568D06CD070D074D008954F
:1005A0000091A4011091AE011F3F11F0039501C00D
:1005B0000A950093A40158D00895C7DF77D011950C
:1005C000012F05950595059505951091A801010246
:1005D000002D1091A301010F0093A3011091A2011E
:1005E000010F1AE0FEDEF092A2011091A101100F9E
:1005F0001093A101A0DF1091A101101770F4A0DFEA
:100600001091A101101748F00091AE010F3F41F485
:100610000091A401002319F003C04ADF01C06FDF7D
:1006200028D00895E3D10091B50107701091A90178
:10063000011700F001E00093A50103C000E0009362
:10064000A501D4D10091B50111274091AB01BADECB
:100650000091A3011091B601112309F02194020D1C
:100660000093A3010BD00895A8EEB3E000E031DDC4
:100670000895A4E6B0E001E02CDD0895A8EEB3E013
:1006800002E027DD0895A4E6B0E003E022DD08954E
:1006900010E00AE11ED00CE11CD00DE11AD0089543
:1006A0000BE310D0102F0CE30DD008950DE30AD00A
:1006B000102F0EE307D008950FE304D0102F00E4AD
:1006C00001D008950068C09819D20FEF17D2C09AD0
:1006D00008950F77C09812D2012F10D2C09A0895B2
:1006E000789404D008D00BD00FD008950FEF0ABB38
:1006F00001BB04BB089507B3006207BB089507B3AD
:100700000760077F07BB089500E002B908952DD266
:1007100009F4A7DE20D209F428D013D209F430D08E
:100720002ED209F44AD035D209F4ACD003E0DCDC97
:1007300009F4A9DF089500E00093A701CBDD01E0F3
:100740000093A80100E00093A90102E20093AA012E
:1007500000E00093AB010AE00093AC0101E00093DC
:10076000AD010FEF0093AE0108950091AE010F3F70
:1007700011F00FEF01C00EEF0093AE01ABDD089555
:1007800000240F92ECEAF7E0E00D0024F01D0F903A
:1007900016E00091A7012591021719F031961A95DC
:1007A000D1F704910093A70195DD0895000101029E
:1007B0000205050303040400000000240F92E4EE88
:1007C000F7E0E00D0024F01D0F9016E00091A70166
:1007D0002591021719F033961A95D1F72591359185
:1007E000F901099400000400010B04000216040042
:1007F0000537040003210400042C0400009B0300BF
:10080000FFDC0091A80111E001130A950093A801F3
:1008100011273CDD0895F4DC0091A90110E00113DB
:100820000A950093A901112731DD0895E9DC0091B3
:10083000AA011AE001130A950093AA0111278FDE7D
:100840000895DEDC0091AB0110E001130A950093DE
:10085000AB0111271BDD0895D3DC0091AC0111E041
:1008600001130A950093AC01112710DD0895C8DC2F
:100870000091AD0111E001130A950093AD0111271C
:1008800075DE089500240F92EEEAF8E0E00D0024F2
:10089000F01D0F9016E00091A7012591021719F0A5
:1008A00033961A95D1F725913591F9010994006590
:1008B000040001700400027B0400059B0400038512
:1008C000040004900400009B03009ADC0091A8013E
:1008D00014E0011303950093A8011127D7DC0895B4
:1008E0008FDC0091A90117E0011303950093A90182
:1008F0001127CCDC089584DC0091AA0112E20113D7
:1009000003950093AA012BDE08957ADC0091AB01D8
:1009100014E0011303950093AB011127B7DC089590
:100920006FDC0091AC011FEF011303950093AC0144
:100930001127ACDC089564DC0091AD0113E00113D4
:10094000039511270093AD0111DE089501E0009396
:10095000B4010091B0010A9519F00093B00118C0DC
:100960000091B10103950093B10114D0002379F4F3
:100970000091AF01013039F000E00093B40100278D
:100980001127A2D005C000270093B10103D09CD04D
:100990007ADE08950091B101000F0024E091B201C8
:1009A000F091B301E00FF01D0591000F1127111F09
:1009B00004900092B0010895820AA50AA50A820A4D
:1009C000C40A0000A50A820A7A0A000082058A0584
:1009D00092059B05A5059B0592058A0582050000E9
:1009E0000FEF0093B50101E00093B6010091B5014E
:1009F0001091B601202F22952170312F31702327BD
:100A00002170000F022B111F11700093B50110937C
:100A1000B601089500000000000000000000000082
:100A200000000000000000000000000000000000C6
:100A3000000000000000420000000002790F0000EA
:100A4000008000007F06BB8FC6CDFD07FFC70000FA
:100A500000880000BFF7FF797FF9F1FDF6063E0040
:100A60007800007FF30000CD007E000000C6007912
:100A7000000F00084000FCB8BE0000CFF4040000E6
:100A80007000B4BC0000B000F83C000000CE0000D4
:100A9000060001007F06BB8FC6CDFD07FFC7F7FC30
:100AA00079BEF9F1010204081020400000000000A6
:100AB00000000000000000000002010408102040B7
:100AC0001127002701D00895103021F4003011F4CF
:100AD000BD9808C0A80114EF04E261DCBD981BBDFD
:100AE0000ABDBD9A08950FE700640F7D006108609C
:100AF00004600D7F01600DB9779808950FB9779B59
:100B0000FECF0FB108950EE10FB6F8940093B8012F
:100B10000093BA010093BC0100E00093BD010FBE39
:100B200001D0089500E00FB6F8940093B701009348
:100B3000B9010093BB010093BE010093BF010FBE3A
:100B4000089510E00FB6F8940091BB011093BB011B
:100B50000FBE0130089510E00FB6F8940091B9016E
:100B60001093B9010FBE0130089510E00FB6F8944C
:100B70000091B7011093B7010FBE0130089510E046
:100B80000FB6F8940091BF011093BF010FBE013062
:100B9000089510E00FB6F8940091BE011093BE01C5
:100BA0000FBE013008952091B80130E844D0209361
:100BB000B8012091B701232B2093B7012091BA01EE
:100BC00030E439D02093BA012091B901232B20932E
:100BD000B9012091BC0130E22ED02093BC012091BC
:100BE000BB01232B2093BB0141B14871440F5091AD
:100BF000BD01652F6073641709F41CC0652F607C0C
:100C0000440F440F6417B1F056955695540F509306
:100C1000BD01523D39F431E03093BE0150E05093B4
:100C2000BD0108C0513E31F431E03093BF0150E0C6
:100C30005093BD01089501B1102F132319F02EE137
:100C400030E005C030E02A9511F42FEF31E008952F
:00000001FF
