:020000020000FC
:100000000C9446000C9402000C9404000C9406001E
:100010000C9408000C940A000C940C000C940E0034
:100020000C9410000C9412000C9414000C94160004
:100030000C9418000C941A000C941C000C94A6004C
:100040000C9420000C9422000C9424000C942600A4
:100050000C9428000C942A000C942C000C942E0074
:100060000C9430000C9432000C9434000C94360044
:100070000C9438000C943A000C943C000C943E0014
:100080000C9440000C9442000C9444000FE70DBF08
:1000900001E00EBF5ED347D062D513D0CDD49ED041
:1000A0003BD54DD52ED3BED1B9D27ED36AD401D0A3
:1000B000EDCF0091A501013011F062D301C004D24F
:1000C000F8CF00271127A0E8B1E00D9313951A305F
:1000D000E0F30895053040F4000FC0E8D1E0C00F10
:1000E00008F4D395A993B9930895053050F4000FFF
:1000F000C0E8D1E0C00F08F4D39509800881002A38
:1001000001C000240895A0E8B1E025E03D914D91A3
:10011000532F542B29F03150404012973D934D936B
:100120002A95A1F7089502D00CD00895002702BFA8
:1001300003E0086003BF0DE701BF07B702E007BF98
:10014000089500E40FBD0BE00EBD08950F931F93BB
:100150002F933F934F935F936F937F938F939F93CF
:10016000AF93BF93CF93DF93EF93FF930F920FB6AD
:100170000F925ED044D5C7DF0F900FBE0F90FF9156
:10018000EF91DF91CF91BF91AF919F918F917F912F
:100190006F915F914F913F912F911F910F91189502
:1001A000FF0074202020FE0020696E460000673D9D
:1001B00020200200456467450300726E673D04001D
:1001C000743D2020050062414C4C1F00203D28203A
:1001D0000F00203D2920000020457272002400926B
:1001E000980110929E0100E00093990101E00093B4
:1001F0009F0100E00093A0010ED008950FE7009347
:100200009F010093A00108950FEF00939F0100E06C
:100210000093A00108950EE00F92CAE8D1E0C00F4C
:100220000024D01D0F9010E01A930A95E9F7089565
:1002300000E00BBB02BB00919E0110919F010117D2
:1002400020F500F0109198010F92CAE8D1E0C10F9B
:100250000024D01D0F90288125BB0F92ECEFFAE00F
:10026000E10F0024F01D0F9024912BBB0F92EAE0C8
:10027000FBE0E10F0024F01D0F90249122BB1395A9
:100280001E3009F4112710939801039510919F01D6
:100290002091A001120F011709F4002700939E017D
:1002A00008953AE0202F2F700FD03395202F2295FC
:1002B0002F700AD03395212F2F7006D03395212F20
:1002C00022952F7001D008950F92ECEEFAE0E20F24
:1002D0000024F01D0F9044910F92CAE8D1E0C30FA3
:1002E0000024D01D0F904883089500240F92E0EA67
:1002F000F1E0E00D0024F01D0F9019E0249120178B
:1003000019F036961A95D1F73296CAE9D1E014E081
:100310000F92CAE9D1E0C10F0024D01D0F900591C2
:100320000A931A95E1F7AAE9B1E00AE00F92CAE848
:10033000D1E0C00F0024D01D0F9014E00D910F925A
:10034000ECE6FAE0E00F0024F01D0F900491099311
:100350001A95A1F708950F931F932F933F934F93EF
:10036000CF93DF930A950934E8F40030D8F0202FBA
:10037000277030E8203019F02A953695FBCF069586
:10038000069506950F92CAE8D1E0C00F0024D01D53
:100390000F904881103019F0432B488303C03095EB
:1003A00043234883DF91CF914F913F912F911F912C
:1003B0000F91089560E133242224001F111F221C95
:1003C000331C2416350610F0241A350A6A95A9F74D
:1003D000001F111F00951095089560E12224001F51
:1003E000111F221C241608F0241A6A95C1F7001F59
:1003F000111F009510950895E02EE12617FD119527
:1004000007FD0195FF1829E0001F2A9519F4E7FC64
:1004100001950895FF1CF11A18F4F10E8894F4CF99
:100420000894F2CF00E00093A50103E20093A1013C
:100430000EEF0093AC0100270093A4010093A301E9
:1004400003E20093A20101E000939F0100E000930A
:10045000A0010895E0DE01E00093A50103E200930E
:10046000A10100240092A4010092A2010092A30124
:100470000092A4011091AA010091AC012EEF021389
:100480001093A40101E00093AD0100240F92E4E277
:10049000FAE0E00D0024F01D0F900591000F1127E8
:1004A000111F3ED3049131971FB6F894E093B00129
:1004B000F093B1010093AE0101E00093B20100E0BE
:1004C0000093AF011FBE08957CD389F003E00DDED9
:1004D00009F466D201E009DE09F4B2D000E005DEDD
:1004E00009F4A1D002E001DE09F4DFD0089593DE23
:1004F00000E00093A5010093AD0100240F92EAE112
:10050000FAE0E00D0024F01D0F900591000F112777
:10051000111F06D3049131971FB6F894E093B001F0
:10052000F093B1010093AE0101E00093B20100E04D
:100530000093AF011FBE0FE1D8DE60DE03E0D5DD22
:10054000E9F72ED20091B2010130C1F35DDEE4D2B1
:1005500069DF089560DE00E00093A5010093AD011E
:1005600000240F92ECE0FAE0E00D0024F01D0F9063
:100570000591000F1127111FD3D2049131971FB697
:10058000F894E093B001F093B1010093AE0101E063
:100590000093B20100E00093AF011FBE0FE0A5DEA3
:1005A00003E0A3DDE9F7FCD10091B2010130C1F312
:1005B00032DE0FE09ADEB0D235DF089504E210910A
:1005C000A801010F089503E21091A801011B0895ED
:1005D00022DE08D002D00DD008950091A401112789
:1005E00060DE0895EBDF11E0B6DEEDDF11E0B3DE93
:1005F0000895F090A101D090AB01DA94ED2CEF0CAE
:100600000E2D063410F006E4E02EFD18FA94F39453
:100610000F2D11E0A0DEFE14D1F708955ED062D058
:1006200066D06AD008950091A4011091AC011F3FDB
:1006300011F0039501C00A950093A4014ED00895CE
:10064000C7DF6DD01195012F059505950595059589
:100650001091A7010102002D1091A301010F009339
:10066000A3011091A201010F14E1C6DEF092A201D4
:100670001091A101100F1093A101A0DF1091A10111
:10068000101770F4A0DF1091A101101748F000912D
:10069000AC010F3F41F40091A401002319F003C005
:1006A00026DF01C057DF1ED00895CCD10091B301E1
:1006B00011274091A901442371F08FDE1091B401FC
:1006C000112309F02194122D02E010020091A301E0
:1006D000000D0093A3010BD00895A8EEB3E000E055
:1006E000F9DC0895A4E6B0E001E0F4DC0895A8EE9A
:1006F000B3E002E0EFDC0895A4E6B0E003E0EADC5A
:10070000089510E00AE11ED00CE11CD00DE11AD0D2
:1007100008950BE310D0102F0CE30DD008950DE3D6
:100720000AD0102F0EE307D008950FE304D0102F46
:1007300000E401D008950068C0980CD20FEF0AD2EF
:10074000C09A08950F77C09805D2012F03D2C09A9E
:100750000895789404D008D00BD00FD008950FEFEF
:100760000ABB01BB04BB089507B3006207BB089531
:1007700007B30760077F07BB089500E002B908953B
:1007800020D209F467DE13D209F425D006D209F489
:100790002DD021D209F446D028D209F49BD003E011
:1007A000A4DC09F4A9DF089500E00093A6019DDD13
:1007B00001E00093A70102E20093A80100E000938A
:1007C000A9010AE00093AA0101E00093AB010FEF39
:1007D0000093AC0108950091AC010F3F11F00FEFB1
:1007E00001C00EEF0093AC0180DD089500240F924C
:1007F000E8E1F8E0E00D0024F01D0F9015E0009115
:10080000A6012591021719F031961A95D1F7049196
:100810000093A6016ADD08950002020505030304A2
:100820000400000000240F92EEE4F8E0E00D002444
:10083000F01D0F9015E00091A6012591021719F007
:1008400033961A95D1F725913591F9010994003322
:100850000400023E0400055F040003490400045440
:10086000040000D40300D7DC0091A70111E00113BC
:100870000A950093A701112714DD0895CCDC00919F
:10088000A8011AE001130A950093A8011127AADE16
:100890000895C1DC0091A90110E001130A950093AD
:1008A000A9011127FEDC0895B6DC0091AA0111E030
:1008B00001130A950093AA011127F3DC0895ABDC1C
:1008C0000091AB0111E001130A950093AB011127D0
:1008D00090DE089500240F92EEEFF8E0E00D002482
:1008E000F01D0F9015E00091A6012591021719F057
:1008F00033961A95D1F725913591F9010994008B1A
:1009000004000296040005B6040003A0040004AB32
:10091000040000D403007FDC0091A70118E001135C
:1009200003950093A7011127BCDC089574DC0091A6
:10093000A80112E2011303950093A80153DE089564
:100940006ADC0091A90118E0011303950093A90145
:100950001127A7DC08955FDC0091AA011FEF0113A6
:1009600003950093AA0111279CDC089554DC0091A3
:10097000AB0113E00113039511270093AB0139DE9E
:10098000089500E00093B2010093AD0100270093A9
:10099000AF010093AE010093B0010093B10108953F
:1009A0000091B2010030F1F00091AE010A9519F00A
:1009B0000093AE0117C00091AF0103950093AF0102
:1009C00013D02091AE01222361F40091AD010130DA
:1009D00021F0D7DF0027112704C000270093AF01C3
:1009E00003D09ED089DE08950091AF01000F00244E
:1009F000E091B001F091B101E00FF01D0591000F01
:100A00001127111F04900092AE010895820AA50AD1
:100A1000C30AA50A820A000A0000A50A820A7A0A05
:100A2000000A000082058A0592059B05A5059B0525
:100A300092058A05000A00000FEF0093B30101E060
:100A40000093B4010091B3011091B401202F2295BD
:100A50002170312F317023272170000F022B111FBD
:100A600011700093B3011093B401089500000000C9
:100A70000000000000000000000000000000000076
:100A80000000000000000000000000000000420024
:100A900000000002790F0000008000007F06BB8F7D
:100AA000C6CDFD07FFC7000000880000BFF7FF7933
:100AB0007FF9F1FDF6063E007800007FF30000CDDF
:100AC000007E000000C60079000F00084000FCB85E
:100AD000BE0000CFF40400007000B4BC0000B00001
:100AE000F83C000000CE0000060001007F06BB8F2E
:100AF000C6CDFD07FFC7F7FC79BEF9F10102040876
:100B00001020400000000000000000000000000075
:100B100000020104081020401127002701D0089589
:100B2000103021F4003011F4BD9808C0A80114EF72
:100B300004E240DCBD981BBD0ABDBD9A08950FE7D5
:100B400000640F7D0061086004600D7F01600DB9D5
:100B5000779808950FB9779BFECF0FB108950EE1F6
:100B60000FB6F8940093B6010093B8010093BA0150
:100B700000E00093BB010FBE01D0089500E00FB666
:100B8000F8940093B5010093B7010093B901009365
:100B9000BC010093BD010FBE089510E00FB6F8949C
:100BA0000091B9011093B9010FBE0130089510E012
:100BB0000FB6F8940091B7011093B7010FBE013042
:100BC000089510E00FB6F8940091B5011093B501A7
:100BD0000FBE0130089510E00FB6F8940091BD01EA
:100BE0001093BD010FBE0130089510E00FB6F894C8
:100BF0000091BC011093BC010FBE013008952091FB
:100C0000B60130E844D02093B6012091B501232BE2
:100C10002093B5012091B80130E439D02093B80178
:100C20002091B701232B2093B7012091BA0130E224
:100C30002ED02093BA012091B901232B2093B90122
:100C400041B14871440F5091BB01652F6073641727
:100C500009F41CC0652F607C440F440F6417B1F089
:100C600056955695540F5093BB01523D39F431E0DF
:100C70003093BC0150E05093BB0108C0513E31F4A9
:100C800031E03093BD0150E05093BB01089501B1B4
:100C9000102F132319F02EE130E005C030E02A9523
:080CA00011F42FEF31E008957B
:00000001FF
