:020000020000FC
:100000000C9446000C9402000C9404000C9406001E
:100010000C9408000C940A000C940C000C940E0034
:100020000C9410000C9412000C9414000C94160004
:100030000C9418000C941A000C941C000C94A6004C
:100040000C9420000C9422000C9424000C942600A4
:100050000C9428000C942A000C942C000C942E0074
:100060000C9430000C9432000C9434000C94360044
:100070000C9438000C943A000C943C000C943E0014
:100080000C9440000C9442000C9444000FE70DBF08
:1000900001E00EBF77D347D099D513D004D5A1D0B6
:1000A00072D584D547D3B4D1C3D297D3A1D401D0CC
:1000B000EDCF0091A601013011F07BD301C0FFD13B
:1000C000F8CF00271127A0E8B1E00D9313951A305F
:1000D000E0F30895053040F4000FC0E8D1E0C00F10
:1000E00008F4D395A993B9930895053050F4000FFF
:1000F000C0E8D1E0C00F08F4D39509800881002A38
:1001000001C000240895A0E8B1E025E03D914D91A3
:10011000532F542B29F03150404012973D934D936B
:100120002A95A1F7089502D00CD00895002702BFA8
:1001300003E0086003BF0DE701BF07B702E007BF98
:10014000089500E40FBD0BE00EBD08950F931F93BB
:100150002F933F934F935F936F937F938F939F93CF
:10016000AF93BF93CF93DF93EF93FF930F920FB6AD
:100170000F9254D07BD5C7DF0F900FBE0F90FF9129
:10018000EF91DF91CF91BF91AF919F918F917F912F
:100190006F915F914F913F912F911F910F91189502
:1001A000FF0074202020FE0020696E460000677268
:1001B00041750100496E75530200456467450300AF
:1001C000726E677504007420743D050062414C4CEA
:1001D0001F00203D28200F00203D29200000204541
:1001E000727200240092980110929E0100E0009328
:1001F000990101E000939F0100E00093A00101D06C
:1002000008950EE00F92CAE8D1E0C00F0024D01D7F
:100210000F9010E01A930A95E9F7089500E00BBBE0
:1002200002BB00919E0110919F01011720F500F083
:10023000109198010F92CAE8D1E0C10F0024D01D9F
:100240000F90288125BB0F92EAE6FBE0E10F002426
:10025000F01D0F9024912BBB0F92E8E7FBE0E10F1C
:100260000024F01D0F90249122BB13951E3009F439
:10027000112710939801039510919F012091A001DF
:10028000120F011709F4002700939E0108953AE028
:10029000202F2F700FD03395202F22952F700AD04A
:1002A0003395212F2F7006D03395212F22952F7053
:1002B00001D008950F92EAE5FBE0E20F0024F01D63
:1002C0000F9044910F92CAE8D1E0C30F0024D01DD3
:1002D0000F904883089500240F92E0EAF1E0E00DCA
:1002E0000024F01D0F901AE02491201719F0369683
:1002F0001A95D1F73296CAE9D1E014E00F92CAE913
:10030000D1E0C10F0024D01D0F9005910A931A95DA
:10031000E1F7AAE9B1E00AE00F92CAE8D1E0C00F24
:100320000024D01D0F9014E00D910F92EAEDFAE039
:10033000E00F0024F01D0F90049109931A95A1F786
:1003400008950F931F932F933F934F93CF93DF9372
:100350000A950934E8F40030D8F0202F277030E8EF
:10036000203019F02A953695FBCF0695069506950F
:100370000F92CAE8D1E0C00F0024D01D0F90488131
:10038000103019F0432B488303C030954323488332
:10039000DF91CF914F913F912F911F910F91089530
:1003A00060E133242224001F111F221C331C241659
:1003B000350610F0241A350A6A95A9F7001F111F97
:1003C00000951095089560E12224001F111F221C42
:1003D000241608F0241A6A95C1F7001F111F009512
:1003E00010950895E02EE12617FD119507FD019562
:1003F000FF1829E0001F2A9519F4E7FC01950895DC
:10040000FF1CF11A18F4F10E8894F4CF0894F2CF7F
:1004100000E00093A6010093A50103E20093A1016F
:100420000EEF0093AE0100270093A4010093A301F7
:1004300003E20093A20101E000939F0100E000931A
:10044000A0010895DEDE01E00093A60100E0009324
:10045000A50103E20093A10100240092A4010092EF
:10046000A2010092A3010092A4011091AC0100919D
:10047000AE012EEF02131093A40101E00093AF012F
:1004800000240F92E2E9FAE0E00D0024F01D0F9045
:100490000591000F1127111F7AD3049131971FB6D0
:1004A000F894E093B201F093B3010093B00101E03E
:1004B0000093B40100E00093B1011FBE0895B8D3CA
:1004C00089F003E012DE09F4A2D201E00EDE09F4A5
:1004D000C1D000E00ADE09F4B0D002E006DE09F483
:1004E000EED008958EDE00E00093A6010093AF01E8
:1004F00000240F92E8E8FAE0E00D0024F01D0F90D0
:100500000591000F1127111F42D3049131971FB697
:10051000F894E093B201F093B3010093B00101E0CD
:100520000093B40100E00093B1011FBE0FE1D3DEE0
:100530000FE700939F010093A00103E0D6DDE9F7E8
:1005400066D20091B4010130C1F30FEF00939F0117
:1005500000270093A0010FE1BEDE15D359DF0895F7
:1005600050DE00E00093A6010093AF0100240F923B
:10057000EAE7FAE0E00D0024F01D0F900591000F6E
:100580001127111F04D3049131971FB6F894E093FB
:10059000B201F093B3010093B00101E00093B40104
:1005A00000E00093B1011FBE0FE095DE03E09DDD8A
:1005B000E9F72DD20091B4010130C1F322DE0FE042
:1005C0008ADEE1D225DF089504E21091AA01010F2D
:1005D000089503E21091AA01011B089512DE0CD0C8
:1005E00006D00091A501013009F00DD008950091C9
:1005F000A40111274CDE0895E7DF11E0A2DEE9DF58
:1006000011E09FDE0895F090A101D090AD01DA9441
:10061000ED2CEF0C0E2D063410F006E4E02EFD1844
:10062000FA94F3940F2D11E08CDEFE14D1F70895A7
:100630006DD071D075D079D008950091A40110913A
:10064000AE011F3F11F0039501C00A950093A4016C
:100650005DD00895C3DF7CD01195012F05950595D8
:10066000059505951091A8010102002D1091A30197
:10067000010F0093A3011091A201010F14E1B2DE5A
:10068000F092A2011091A101100F1093A1019CDF23
:100690001091A101101770F49CDF1091A1011017A7
:1006A00048F00091AE010F3F41F40091A4010023F6
:1006B00019F003C017DF01C053DF2DD00895F9D121
:1006C0000091B5010F701091A901011700F001E030
:1006D0000093A50103C000E00093A501EAD10091B9
:1006E000B50111274091AB01442371F06CDE1091EC
:1006F000B601112309F02194122D02E0100200919D
:10070000A301000D0093A3010BD00895A8EEB3E060
:1007100000E0E0DC0895A4E6B0E001E0DBDC089551
:10072000A8EEB3E002E0D6DC0895A4E6B0E003E072
:10073000D1DC089510E00AE11ED00CE11CD00DE1DF
:100740001AD008950BE310D0102F0CE30DD00895AC
:100750000DE30AD0102F0EE307D008950FE304D065
:10076000102F00E401D008950068C0982AD20FEF3E
:1007700028D2C09A08950F77C09823D2012F21D292
:10078000C09A0895789404D008D00BD00FD0089563
:100790000FEF0ABB01BB04BB089507B3006207BBA0
:1007A000089507B30760077F07BB089500E002B90B
:1007B00008953ED209F446DE31D209F428D024D27D
:1007C00009F430D03FD209F44AD046D209F4ACD073
:1007D00003E08BDC09F4A9DF089500E00093A70192
:1007E0007ADD01E00093A80100E00093A90102E294
:1007F0000093AA0100E00093AB010AE00093AC0172
:1008000001E00093AD010FEF0093AE010895009158
:10081000AE010F3F11F00FEF01C00EEF0093AE01DC
:100820005ADD089500240F92E0E5F8E0E00D002481
:10083000F01D0F9016E00091A7012591021719F005
:1008400031961A95D1F704910093A70144DD0895DC
:100850000001010202050503030404000000002456
:100860000F92E8E8F8E0E00D0024F01D0F9016E08C
:100870000091A7012591021719F033961A95D1F727
:1008800025913591F901099400520400015D04009D
:10089000026804000589040003730400047E040058
:1008A00000ED0300AEDC0091A80111E001130A95F0
:1008B0000093A8011127EBDC0895A3DC0091A901A6
:1008C00010E001130A950093A9011127E0DC0895B7
:1008D00098DC0091AA011AE001130A950093AA017D
:1008E00011278ADE08958DDC0091AB0110E0011321
:1008F0000A950093AB011127CADC089582DC0091B0
:10090000AC0111E001130A950093AC011127BFDC83
:10091000089577DC0091AD0111E001130A95009371
:10092000AD01112770DE089500240F92E2E5F9E091
:10093000E00D0024F01D0F9016E00091A701259115
:10094000021719F033961A95D1F725913591F901CF
:10095000099400B7040001C2040002CD040005EDB3
:10096000040003D7040004E2040000ED030049DCA6
:100970000091A80118E0011303950093A801112725
:1009800086DC08953EDC0091A90117E00113039570
:100990000093A90111277BDC089533DC0091AA01A3
:1009A00012E2011303950093AA0126DE089529DCC3
:1009B0000091AB0118E0011303950093AB011127DF
:1009C00066DC08951EDC0091AC011FEF0113039556
:1009D0000093AC0111275BDC089513DC0091AD019D
:1009E00013E00113039511270093AD010CDE089568
:1009F00000E00093B4010093AF0100270093B10120
:100A00000093B0010093B2010093B30108950091E7
:100A1000B4010030F1F00091B0010A9519F0009393
:100A2000B00117C00091B10103950093B10113D03B
:100A30002091B001222361F40091AF01013021F037
:100A4000D7DF0027112704C000270093B10103D08E
:100A50009ED06BDE08950091B101000F0024E0915B
:100A6000B201F091B301E00FF01D0591000F1127C5
:100A7000111F04900092B0010895820AA50AC30ACA
:100A8000A50A820A000A0000A50A820A7A0A000A58
:100A9000000082058A0592059B05A5059B05920528
:100AA0008A05000A00000FEF0093B50101E00093F2
:100AB000B6010091B5011091B601202F2295217049
:100AC000312F317023272170000F022B111F11705D
:100AD0000093B5011093B6010895000000000000D6
:100AE0000000000000000000000000000000000006
:100AF00000000000000000000000000042000000B4
:100B00000002790F0000008000007F06BB8FC6CD79
:100B1000FD07FFC7000000880000BFF7FF797FF9DD
:100B2000F1FDF6063E007800007FF30000CD007E68
:100B3000000000C60079000F00084000FCB8BE00AD
:100B400000CFF40400007000B4BC0000B000F83C1A
:100B5000000000CE0000060001007F06BB8FC6CD5E
:100B6000FD07FFC7F7FC79BEF9F101020408102068
:100B70004000000000000000000000000000000233
:100B80000104081020401127002701D008951030DB
:100B900021F4003011F4BD9808C0A80114EF04E25C
:100BA000FFDBBD981BBD0ABDBD9A08950FE7006429
:100BB0000F7D0061086004600D7F01600DB97798BA
:100BC00008950FB9779BFECF0FB108950EE10FB6D0
:100BD000F8940093B8010093BA010093BC0100E0BF
:100BE0000093BD010FBE01D0089500E00FB6F89448
:100BF0000093B7010093B9010093BB010093BE01BC
:100C00000093BF010FBE089510E00FB6F894009155
:100C1000BB011093BB010FBE0130089510E00FB669
:100C2000F8940091B9011093B9010FBE01300895F5
:100C300010E00FB6F8940091B7011093B7010FBE02
:100C40000130089510E00FB6F8940091BF011093A1
:100C5000BF010FBE0130089510E00FB6F894009167
:100C6000BE011093BE010FBE013008952091B8015E
:100C700030E844D02093B8012091B701232B209372
:100C8000B7012091BA0130E439D02093BA01209104
:100C9000B901232B2093B9012091BC0130E22ED061
:100CA0002093BC012091BB01232B2093BB0141B1B8
:100CB0004871440F5091BD01652F6073641709F4AA
:100CC0001CC0652F607C440F440F6417B1F056952B
:100CD0005695540F5093BD01523D39F431E0309395
:100CE000BE0150E05093BD0108C0513E31F431E0E7
:100CF0003093BF0150E05093BD01089501B1102F12
:100D0000132319F02EE130E005C030E02A9511F4EC
:060D10002FEF31E0089511
:00000001FF
